---
title: Babylon List Waiting Broadcast Transactions
api: GET /v1/custody/mpc/babylon/list_waiting_broadcast_transactions/
contentType: multipart/form-data
description: <Note>This content applies to WaaS 1.0 only. We highly recommend that you upgrade to <a href="/v2/guides/overview/introduction">WaaS 2.0</a>.</Note> This endpoint is used to query all unbroadcasted pre-signed staking transactions based on the provided parameter `asset_coin` and `address`
---

#### Request
<ParamField query="asset_coin" type="String" required>code of the staking token</ParamField>
<ParamField query="address" type="String" required>staking address</ParamField>


#### Response
<ResponseField name="success" type="bool">request successful or failed</ResponseField>
<ResponseField name="result" type="object[]">
    <Expandable title="object">
        <ResponseField name="request_id" type="String" >Transaction request ID</ResponseField>
        <ResponseField name="cobo_id" type="String" >Unique transaction ID in Cobo</ResponseField>
        <ResponseField name="staking_info" type="String" >Detailed information of the staking transaction, in JSON format</ResponseField>
        <ResponseField name="status" type="Int" >
        | Status Type | Code |
        | ----------- | ----------- |
        | STAKING_TX_QUEUED| 1|
        | STAKING_TX_WAITING_BROADCASTING| 100|
        | STAKING_TX_BROADCASTED| 200|
        | STAKING_TX_PENDING| 300|
        | STAKING_ACTIVE| 400|
        | STAKING_FAILED| 499|

        <Tip>The 300 status indicates that the transaction has been confirmed on the BTC chain but not yet indexed by Babylon, while the 400 status indicates that the transaction has been successfully confirmed by the Babylon indexer.</Tip>
        </ResponseField>
        <ResponseField name="fee_rate" type="String" >transaction fees per byte</ResponseField>
        <ResponseField name="max_staking_fee" type="Int" >maximum fee for the staking transaction</ResponseField>
        <ResponseField name="sign_result" type="Json" >signature result, which is in JSON format and the contains raw transaction hex</ResponseField>
    </Expandable>
</ResponseField>

<RequestExample>
```python Python
request(
    "GET",
    "/v1/custody/mpc/babylon/list_waiting_broadcast_transactions/",
    {
        "asset_coin": "SIGNET_BTC",
        "address": "tb1pk3gty3x43zkej7v9tuw78qtfsl3xgsp4v707acd8yqsw8lqvfhystl0rec"
    },
    api_key, api_secret, host
)
```
```javascript JavaScript
coboFetch('GET', '/v1/custody/mpc/babylon/list_waiting_broadcast_transactions/', {
    "asset_coin": "SIGNET_BTC",
    "address": "tb1pk3gty3x43zkej7v9tuw78qtfsl3xgsp4v707acd8yqsw8lqvfhystl0rec"
}, api_key, api_secret, host)
    .then(res => {
        res.json().then((data)=>{
            console.log(JSON.stringify(data, null, 4));
        })
    }).catch(err => {
        console.log(err)
    });
```
```go Go
Request("GET", "/v1/custody/mpc/babylon/get_staking_info/", map[string]string{
    "asset_coin": "SIGNET_BTC",
    "address": "tb1pk3gty3x43zkej7v9tuw78qtfsl3xgsp4v707acd8yqsw8lqvfhystl0rec"
})
```
</RequestExample>

<ResponseExample>
```json
{
  "success": true,
  "result": [{
    "request_id": "1717134063431",
    "cobo_id": "20240531134105000300692000007801",
    "staking_info": "{\"asset_coin\": \"SIGNET_BTC\", \"stake_address\": \"tb1pufc6zv4wquhcshgr4lay4lqa6vua3m435hqmml9w74ycxxnv329qdl6cq2\", \"amount\": 50000, \"stake_block_time\": 64000, \"finality_provider\": \"88b32b005d5b7e29e6f82998aff023bff7b600c6a1a74ffac984b3aa0579b384\"}",
    "status": 200,
    "fee_rate": "100.00000000",
    "max_staking_fee": 50000,
    "sign_result": "{\"raw_tx\": \"0200000000010197a8e32b25590962075bf8517aa117459abd26593731e3d58ecf3c8cfb1b9a750200000000000000000350c30000000000002251205e5882d46eadd557b170a4dc73970bb663c37b262da3b7eb75ff9627c51d695b0000000000000000496a476262743400b450b244d588ad9979855f1de3816987e2644035679feee1a72020e3fc0c4dc988b32b005d5b7e29e6f82998aff023bff7b600c6a1a74ffac984b3aa0579b384fa00125f0c0000000000225120b450b244d588ad9979855f1de3816987e2644035679feee1a72020e3fc0c4dc90140ca3ce98e6837b4404af7e1087072e7306d132ae1ccbf5377f75bd7f2ee7678c9e623e167deaca981269cc317b6c25359b6b399bfb577d5414c17002ca34e463809080300\"}"
  }]
}

```
</ResponseExample>
